S0100000736E6F77737461722E7372656393
S1130000DAC0DFC0DEC0DDC0DCC0DBC0DAC0D9C00E
S1130010D8C0D7C074012200D400A0002000B400CE
S1130020B04F4D4BA94D5074B24B773595948D8F8D
S1130030B04F6D4BA9664F4D8C200C0D8F8C8D8D60
S113004020284D282D2D28262463244361202B2B82
S11300502B2B2D2B298840682648262626482670D7
S11300606F66244624242446244F6D2043232323EF
S11300702323644342638860904F4F2D2F30502FC9
S11300804F2D2F70306F2D2B492826288B202B6B5A
S1130090292623662949282D70304F2A2D2C4D2FCF
S11300A06D906F4F2D2F30502F6F2D2F70304F2D9F
S11300B02B492826288B202B6B292623662949289F
S11300C02D70306F2A2D2C6D2F4D906F4F2A2D6C73
S11300D02D2F8DA07854514E545373333433314FF4
S11300E04E74537854514E545373333433314F4E0A
S11300F08C584054514E545373333433314F4E74EF
S1130100537854514E545373333433314F4E8C58C7
S11301108C5353732E514F4C404A4A763474734077
S11301203634514E7433734033337331518F40330B
S113013033732E312F8C4A4A763474537854514E8B
S113014054537353535351516F7854514E54537302
S1130150535353574E8C5854514E54537333343372
S1130160314F4E74537854514E54537333343331A6
S11301704F4E8C809471719471717472716FAD96DD
S113018079769471717472716FAD96797694717198
S11301907472716FADA0008F878079726B65605A3D
S11301A055504C4743403C393532302D2A282623BC
S11301B021201E1C1A1811241FBECFE9CDBF02D066
S11301C071C01ECFF89484E088BB83E087BB92E4BF
S11301D09FBD83BF789420E0D1E033E0C2E0C198B2
S11301E0233008F020E0822F90E0880F991F880FB9
S11301F0991FFC01EC5EFF4F45915491FC01EA5EAE
S1130200FF4FA591B49160E070E06A177B0709F491
S11302103FC0FB01E40FF51F8491982F92959695AA
S11302209770ED2F01C0EE0F9A95EAF79E2F8F710C
S1130230E82FF0E0EA56FE4FE491E6BF811133BFA8
S1130240992359F0FFEF80EEE0E0F1508040E04068
S1130250E1F700C000009150F3CF13BE8FE697E1A1
S11302600197F1F700C00000B2990CC0EFE5FAEE77
S11302703197F1F700C00000B29904C0B29BFECFE1
S11302802F5F06C088B38C2788BB6F5F7F4FBDCFBD
S1130290FFEF45EA8EE0F15040408040E1F700C0B6
S10B02A000009DCFF894FFCF8C
S9030000FC
